{
  "contractName": "EthNOS",
  "abi": [
    {
      "anonymous": false,
      "inputs": [
        {
          "indexed": true,
          "internalType": "bytes32",
          "name": "documentHash",
          "type": "bytes32"
        }
      ],
      "name": "DocumentCertified",
      "type": "event"
    },
    {
      "anonymous": false,
      "inputs": [
        {
          "indexed": true,
          "internalType": "bytes32",
          "name": "documentHash",
          "type": "bytes32"
        },
        {
          "indexed": false,
          "internalType": "address",
          "name": "signatory",
          "type": "address"
        }
      ],
      "name": "DocumentSigned",
      "type": "event"
    },
    {
      "anonymous": false,
      "inputs": [
        {
          "indexed": true,
          "internalType": "bytes32",
          "name": "documentHash",
          "type": "bytes32"
        },
        {
          "indexed": false,
          "internalType": "uint256",
          "name": "amount",
          "type": "uint256"
        }
      ],
      "name": "DocumentSigningBalanceWithdrawn",
      "type": "event"
    },
    {
      "anonymous": false,
      "inputs": [
        {
          "indexed": true,
          "internalType": "bytes32",
          "name": "documentHash",
          "type": "bytes32"
        },
        {
          "indexed": false,
          "internalType": "uint256",
          "name": "amount",
          "type": "uint256"
        }
      ],
      "name": "DocumentSigningCharged",
      "type": "event"
    },
    {
      "anonymous": false,
      "inputs": [
        {
          "indexed": true,
          "internalType": "bytes32",
          "name": "documentHash",
          "type": "bytes32"
        },
        {
          "indexed": false,
          "internalType": "uint256",
          "name": "amount",
          "type": "uint256"
        }
      ],
      "name": "DocumentSigningFunded",
      "type": "event"
    },
    {
      "anonymous": false,
      "inputs": [
        {
          "indexed": true,
          "internalType": "bytes32",
          "name": "documentHash",
          "type": "bytes32"
        }
      ],
      "name": "DocumentSubmissionAmended",
      "type": "event"
    },
    {
      "anonymous": false,
      "inputs": [
        {
          "indexed": true,
          "internalType": "bytes32",
          "name": "documentHash",
          "type": "bytes32"
        }
      ],
      "name": "DocumentSubmissionDeleted",
      "type": "event"
    },
    {
      "anonymous": false,
      "inputs": [
        {
          "indexed": true,
          "internalType": "bytes32",
          "name": "documentHash",
          "type": "bytes32"
        }
      ],
      "name": "DocumentSubmitted",
      "type": "event"
    },
    {
      "anonymous": false,
      "inputs": [
        {
          "indexed": true,
          "internalType": "address",
          "name": "previousOwner",
          "type": "address"
        },
        {
          "indexed": true,
          "internalType": "address",
          "name": "newOwner",
          "type": "address"
        }
      ],
      "name": "OwnershipTransferred",
      "type": "event"
    },
    {
      "inputs": [],
      "name": "ethNOSPaymaster",
      "outputs": [
        {
          "internalType": "contract EthNOSPaymaster",
          "name": "",
          "type": "address"
        }
      ],
      "stateMutability": "view",
      "type": "function",
      "constant": true
    },
    {
      "inputs": [
        {
          "internalType": "address",
          "name": "forwarder",
          "type": "address"
        }
      ],
      "name": "isTrustedForwarder",
      "outputs": [
        {
          "internalType": "bool",
          "name": "",
          "type": "bool"
        }
      ],
      "stateMutability": "view",
      "type": "function",
      "constant": true
    },
    {
      "inputs": [],
      "name": "owner",
      "outputs": [
        {
          "internalType": "address",
          "name": "",
          "type": "address"
        }
      ],
      "stateMutability": "view",
      "type": "function",
      "constant": true
    },
    {
      "inputs": [],
      "name": "renounceOwnership",
      "outputs": [],
      "stateMutability": "nonpayable",
      "type": "function"
    },
    {
      "inputs": [
        {
          "internalType": "address",
          "name": "newOwner",
          "type": "address"
        }
      ],
      "name": "transferOwnership",
      "outputs": [],
      "stateMutability": "nonpayable",
      "type": "function"
    },
    {
      "inputs": [],
      "name": "trustedForwarder",
      "outputs": [
        {
          "internalType": "address",
          "name": "",
          "type": "address"
        }
      ],
      "stateMutability": "view",
      "type": "function",
      "constant": true
    },
    {
      "inputs": [],
      "name": "versionRecipient",
      "outputs": [
        {
          "internalType": "string",
          "name": "",
          "type": "string"
        }
      ],
      "stateMutability": "view",
      "type": "function",
      "constant": true
    },
    {
      "inputs": [
        {
          "internalType": "address",
          "name": "_trustedForwarder",
          "type": "address"
        }
      ],
      "name": "setTrustedForwarder",
      "outputs": [],
      "stateMutability": "nonpayable",
      "type": "function"
    },
    {
      "inputs": [
        {
          "internalType": "contract EthNOSPaymaster",
          "name": "_ethNOSPaymaster",
          "type": "address"
        }
      ],
      "name": "setEthNOSPaymaster",
      "outputs": [],
      "stateMutability": "nonpayable",
      "type": "function"
    },
    {
      "inputs": [
        {
          "internalType": "bytes32",
          "name": "documentHash",
          "type": "bytes32"
        },
        {
          "internalType": "address[]",
          "name": "requiredSignatories",
          "type": "address[]"
        }
      ],
      "name": "submitDocument",
      "outputs": [],
      "stateMutability": "payable",
      "type": "function",
      "payable": true
    },
    {
      "inputs": [
        {
          "internalType": "bytes32",
          "name": "documentHash",
          "type": "bytes32"
        },
        {
          "internalType": "address[]",
          "name": "requiredSignatories",
          "type": "address[]"
        }
      ],
      "name": "amendDocumentSubmission",
      "outputs": [],
      "stateMutability": "payable",
      "type": "function",
      "payable": true
    },
    {
      "inputs": [
        {
          "internalType": "bytes32",
          "name": "documentHash",
          "type": "bytes32"
        }
      ],
      "name": "deleteDocumentSubmission",
      "outputs": [],
      "stateMutability": "nonpayable",
      "type": "function"
    },
    {
      "inputs": [
        {
          "internalType": "bytes32",
          "name": "documentHash",
          "type": "bytes32"
        }
      ],
      "name": "fundDocumentSigning",
      "outputs": [],
      "stateMutability": "payable",
      "type": "function",
      "payable": true
    },
    {
      "inputs": [
        {
          "internalType": "bytes32",
          "name": "documentHash",
          "type": "bytes32"
        }
      ],
      "name": "withdrawDocumentSigningBalance",
      "outputs": [],
      "stateMutability": "nonpayable",
      "type": "function"
    },
    {
      "inputs": [
        {
          "internalType": "bytes32",
          "name": "documentHash",
          "type": "bytes32"
        }
      ],
      "name": "getDocumentSigningBalance",
      "outputs": [
        {
          "internalType": "uint256",
          "name": "signingBalance",
          "type": "uint256"
        }
      ],
      "stateMutability": "view",
      "type": "function",
      "constant": true
    },
    {
      "inputs": [
        {
          "internalType": "bytes32",
          "name": "documentHash",
          "type": "bytes32"
        }
      ],
      "name": "signDocument",
      "outputs": [],
      "stateMutability": "nonpayable",
      "type": "function"
    },
    {
      "inputs": [
        {
          "internalType": "bytes32",
          "name": "documentHash",
          "type": "bytes32"
        },
        {
          "internalType": "uint256",
          "name": "maxAmountToBeCharged",
          "type": "uint256"
        },
        {
          "internalType": "address",
          "name": "originalSender",
          "type": "address"
        }
      ],
      "name": "approveRelayedSignDocumentCall",
      "outputs": [],
      "stateMutability": "view",
      "type": "function",
      "constant": true
    },
    {
      "inputs": [
        {
          "internalType": "bytes32",
          "name": "documentHash",
          "type": "bytes32"
        },
        {
          "internalType": "uint256",
          "name": "amountCharged",
          "type": "uint256"
        }
      ],
      "name": "chargeRelayedSignDocumentCall",
      "outputs": [],
      "stateMutability": "nonpayable",
      "type": "function"
    },
    {
      "inputs": [
        {
          "internalType": "bytes32",
          "name": "documentHash",
          "type": "bytes32"
        }
      ],
      "name": "verifyDocument",
      "outputs": [
        {
          "internalType": "enum EthNOS.CertificationState",
          "name": "certificationState",
          "type": "uint8"
        },
        {
          "internalType": "address",
          "name": "submitter",
          "type": "address"
        },
        {
          "components": [
            {
              "internalType": "uint256",
              "name": "submissionTime",
              "type": "uint256"
            },
            {
              "internalType": "address[]",
              "name": "requiredSignatories",
              "type": "address[]"
            },
            {
              "internalType": "uint256",
              "name": "certificationTime",
              "type": "uint256"
            }
          ],
          "internalType": "struct EthNOS.CertificationInfo",
          "name": "currentCertification",
          "type": "tuple"
        },
        {
          "components": [
            {
              "internalType": "uint256",
              "name": "submissionTime",
              "type": "uint256"
            },
            {
              "internalType": "address[]",
              "name": "requiredSignatories",
              "type": "address[]"
            },
            {
              "internalType": "uint256",
              "name": "certificationTime",
              "type": "uint256"
            }
          ],
          "internalType": "struct EthNOS.CertificationInfo[]",
          "name": "pastCertifications",
          "type": "tuple[]"
        },
        {
          "components": [
            {
              "internalType": "address",
              "name": "signatory",
              "type": "address"
            },
            {
              "internalType": "uint256",
              "name": "signTime",
              "type": "uint256"
            }
          ],
          "internalType": "struct EthNOS.SigningInfo[]",
          "name": "signatures",
          "type": "tuple[]"
        }
      ],
      "stateMutability": "view",
      "type": "function",
      "constant": true
    }
  ],
  "bytecode": "0x60806040526040518060400160405280600581526020017f322e322e34000000000000000000000000000000000000000000000000000000815250600290805190602001906200005192919062000203565b503480156200005f57600080fd5b5062000080620000746200008660201b60201c565b620000a260201b60201c565b62000318565b60006200009d6200016860201b620020021760201c565b905090565b6000600160009054906101000a900473ffffffffffffffffffffffffffffffffffffffff16905081600160006101000a81548173ffffffffffffffffffffffffffffffffffffffff021916908373ffffffffffffffffffffffffffffffffffffffff1602179055508173ffffffffffffffffffffffffffffffffffffffff168173ffffffffffffffffffffffffffffffffffffffff167f8be0079c531659141344cd1fd0a4f28419497f9722a3daafe3b4186f6b6457e060405160405180910390a35050565b600060146000369050101580156200018d57506200018c33620001aa60201b60201c565b5b15620001a357601436033560601c9050620001a7565b3390505b90565b60008060009054906101000a900473ffffffffffffffffffffffffffffffffffffffff1673ffffffffffffffffffffffffffffffffffffffff168273ffffffffffffffffffffffffffffffffffffffff16149050919050565b8280546200021190620002e2565b90600052602060002090601f01602090048101928262000235576000855562000281565b82601f106200025057805160ff191683800117855562000281565b8280016001018555821562000281579182015b828111156200028057825182559160200191906001019062000263565b5b50905062000290919062000294565b5090565b5b80821115620002af57600081600090555060010162000295565b5090565b7f4e487b7100000000000000000000000000000000000000000000000000000000600052602260045260246000fd5b60006002820490506001821680620002fb57607f821691505b60208210811415620003125762000311620002b3565b5b50919050565b61366c80620003286000396000f3fe6080604052600436106101145760003560e01c80637da0a877116100a0578063bce428fc11610064578063bce428fc1461034c578063c2bc37a414610377578063da742228146103a0578063f2fde38b146103c9578063fe35089f146103f257610114565b80637da0a877146102675780638be429f2146102925780638da5cb5b146102bb5780638e61e75d146102e65780639a8ee9d31461030f57610114565b80633ff39c70116100e75780633ff39c70146101b0578063486ff0cd146101cc578063572b6c05146101f7578063715018a6146102345780637302997b1461024b57610114565b8063166cba381461011957806321948246146101425780632ba035c01461016b5780632f4f935914610187575b600080fd5b34801561012557600080fd5b50610140600480360381019061013b91906124e3565b610433565b005b34801561014e57600080fd5b50610169600480360381019061016491906125a4565b610701565b005b6101856004803603810190610180919061265c565b6109bb565b005b34801561019357600080fd5b506101ae60048036038101906101a991906124e3565b610bc9565b005b6101ca60048036038101906101c591906124e3565b610e92565b005b3480156101d857600080fd5b506101e1611228565b6040516101ee9190612755565b60405180910390f35b34801561020357600080fd5b5061021e60048036038101906102199190612777565b6112b6565b60405161022b91906127bf565b60405180910390f35b34801561024057600080fd5b5061024961130f565b005b6102656004803603810190610260919061265c565b611397565b005b34801561027357600080fd5b5061027c611512565b60405161028991906127e9565b60405180910390f35b34801561029e57600080fd5b506102b960048036038101906102b49190612854565b61153b565b005b3480156102c757600080fd5b506102d06115fb565b6040516102dd91906127e9565b60405180910390f35b3480156102f257600080fd5b5061030d600480360381019061030891906124e3565b611625565b005b34801561031b57600080fd5b50610336600480360381019061033191906124e3565b61193b565b6040516103439190612890565b60405180910390f35b34801561035857600080fd5b50610361611a34565b60405161036e919061290a565b60405180910390f35b34801561038357600080fd5b5061039e60048036038101906103999190612925565b611a5a565b005b3480156103ac57600080fd5b506103c760048036038101906103c29190612777565b611b5a565b005b3480156103d557600080fd5b506103f060048036038101906103eb9190612777565b611be2565b005b3480156103fe57600080fd5b50610419600480360381019061041491906124e3565b611cda565b60405161042a959493929190612ce9565b60405180910390f35b806000801b81141561047a576040517f08c379a000000000000000000000000000000000000000000000000000000000815260040161047190612d9d565b60405180910390fd5b600060046000848152602001908152602001600020905060008160060160006104a1612039565b73ffffffffffffffffffffffffffffffffffffffff1673ffffffffffffffffffffffffffffffffffffffff168152602001908152602001600020600101541461051f576040517f08c379a000000000000000000000000000000000000000000000000000000000815260040161051690612e09565b60405180910390fd5b60006040518060400160405280610534612039565b73ffffffffffffffffffffffffffffffffffffffff16815260200142815250905080826006016000610564612039565b73ffffffffffffffffffffffffffffffffffffffff1673ffffffffffffffffffffffffffffffffffffffff16815260200190815260200160002060008201518160000160006101000a81548173ffffffffffffffffffffffffffffffffffffffff021916908373ffffffffffffffffffffffffffffffffffffffff160217905550602082015181600101559050508160050181908060018154018082558091505060019003906000526020600020906002020160009091909190915060008201518160000160006101000a81548173ffffffffffffffffffffffffffffffffffffffff021916908373ffffffffffffffffffffffffffffffffffffffff160217905550602082015181600101555050837ffc566ede6102b78343776b8847b3fac426f2ca3c96a1b9ead9faa5994b22b1ed61069d612039565b6040516106aa91906127e9565b60405180910390a2600160028111156106c6576106c5612965565b5b8260000160149054906101000a900460ff1660028111156106ea576106e9612965565b5b14156106fb576106fa8483612048565b5b50505050565b600360009054906101000a900473ffffffffffffffffffffffffffffffffffffffff1673ffffffffffffffffffffffffffffffffffffffff16610742612039565b73ffffffffffffffffffffffffffffffffffffffff1614610798576040517f08c379a000000000000000000000000000000000000000000000000000000000815260040161078f90612e75565b60405180910390fd5b826000801b8114156107df576040517f08c379a00000000000000000000000000000000000000000000000000000000081526004016107d690612d9d565b60405180910390fd5b83600160028111156107f4576107f3612965565b5b6004600083815260200190815260200160002060000160149054906101000a900460ff16600281111561082a57610829612965565b5b1461086a576040517f08c379a000000000000000000000000000000000000000000000000000000000815260040161086190612f07565b60405180910390fd5b600060046000878152602001908152602001600020905080600701548511156108c8576040517f08c379a00000000000000000000000000000000000000000000000000000000081526004016108bf90612f99565b60405180910390fd5b6000805b8260010160010180549050811015610971578573ffffffffffffffffffffffffffffffffffffffff1683600101600101828154811061090e5761090d612fb9565b5b9060005260206000200160009054906101000a900473ffffffffffffffffffffffffffffffffffffffff1673ffffffffffffffffffffffffffffffffffffffff16141561095e5760019150610971565b808061096990613017565b9150506108cc565b50806109b2576040517f08c379a00000000000000000000000000000000000000000000000000000000081526004016109a9906130ac565b60405180910390fd5b50505050505050565b826000801b811415610a02576040517f08c379a00000000000000000000000000000000000000000000000000000000081526004016109f990612d9d565b60405180910390fd5b836004600082815260200190815260200160002060000160009054906101000a900473ffffffffffffffffffffffffffffffffffffffff1673ffffffffffffffffffffffffffffffffffffffff16610a58612039565b73ffffffffffffffffffffffffffffffffffffffff1614610aae576040517f08c379a0000000000000000000000000000000000000000000000000000000008152600401610aa59061313e565b60405180910390fd5b6000600460008781526020019081526020016000209050600280811115610ad857610ad7612965565b5b8160000160149054906101000a900460ff166002811115610afc57610afb612965565b5b1415610b615780600401816001019080600181540180825580915050600190039060005260206000209060030201600090919091909150600082015481600001556001820181600101908054610b53929190612352565b506002820154816002015550505b80600101600080820160009055600182016000610b7e91906123a4565b60028201600090555050857fdba63f38093118024007506ebc8dc7eddfbddabc6f9d32c639d304e72e0242f860405160405180910390a2610bc1818787876121d6565b505050505050565b600073ffffffffffffffffffffffffffffffffffffffff16600360009054906101000a900473ffffffffffffffffffffffffffffffffffffffff1673ffffffffffffffffffffffffffffffffffffffff161415610c5b576040517f08c379a0000000000000000000000000000000000000000000000000000000008152600401610c52906131aa565b60405180910390fd5b806000801b811415610ca2576040517f08c379a0000000000000000000000000000000000000000000000000000000008152600401610c9990612d9d565b60405180910390fd5b816004600082815260200190815260200160002060000160009054906101000a900473ffffffffffffffffffffffffffffffffffffffff1673ffffffffffffffffffffffffffffffffffffffff16610cf8612039565b73ffffffffffffffffffffffffffffffffffffffff1614610d4e576040517f08c379a0000000000000000000000000000000000000000000000000000000008152600401610d459061313e565b60405180910390fd5b60006004600085815260200190815260200160002090506000816007015411610dac576040517f08c379a0000000000000000000000000000000000000000000000000000000008152600401610da390613216565b60405180910390fd5b600360009054906101000a900473ffffffffffffffffffffffffffffffffffffffff1673ffffffffffffffffffffffffffffffffffffffff1663cdc602db8260070154610df7612039565b6040518363ffffffff1660e01b8152600401610e14929190613245565b600060405180830381600087803b158015610e2e57600080fd5b505af1158015610e42573d6000803e3d6000fd5b50505050837f4d649025a9c75a222097adea4f400e086bdd9ad6356308f20e0115ffe7ffd2c78260070154604051610e7a9190612890565b60405180910390a26000816007018190555050505050565b600073ffffffffffffffffffffffffffffffffffffffff16600360009054906101000a900473ffffffffffffffffffffffffffffffffffffffff1673ffffffffffffffffffffffffffffffffffffffff161415610f24576040517f08c379a0000000000000000000000000000000000000000000000000000000008152600401610f1b906131aa565b60405180910390fd5b806000801b811415610f6b576040517f08c379a0000000000000000000000000000000000000000000000000000000008152600401610f6290612d9d565b60405180910390fd5b816004600082815260200190815260200160002060000160009054906101000a900473ffffffffffffffffffffffffffffffffffffffff1673ffffffffffffffffffffffffffffffffffffffff16610fc1612039565b73ffffffffffffffffffffffffffffffffffffffff1614611017576040517f08c379a000000000000000000000000000000000000000000000000000000000815260040161100e9061313e565b60405180910390fd5b826001600281111561102c5761102b612965565b5b6004600083815260200190815260200160002060000160149054906101000a900460ff16600281111561106257611061612965565b5b146110a2576040517f08c379a000000000000000000000000000000000000000000000000000000000815260040161109990612f07565b60405180910390fd5b600034116110e5576040517f08c379a00000000000000000000000000000000000000000000000000000000081526004016110dc906132ba565b60405180910390fd5b60006004600086815260200190815260200160002090503481600701600082825461111091906132da565b92505081905550600080600360009054906101000a900473ffffffffffffffffffffffffffffffffffffffff1673ffffffffffffffffffffffffffffffffffffffff163460405161116090613361565b60006040518083038185875af1925050503d806000811461119d576040519150601f19603f3d011682016040523d82523d6000602084013e6111a2565b606091505b5091509150816111e7576040517f08c379a00000000000000000000000000000000000000000000000000000000081526004016111de906133e8565b60405180910390fd5b867f2efb1687e79881962cb7b231930da0b5aaaa37fbb2d0ac0b23a5927abafed740346040516112179190612890565b60405180910390a250505050505050565b6002805461123590613437565b80601f016020809104026020016040519081016040528092919081815260200182805461126190613437565b80156112ae5780601f10611283576101008083540402835291602001916112ae565b820191906000526020600020905b81548152906001019060200180831161129157829003601f168201915b505050505081565b60008060009054906101000a900473ffffffffffffffffffffffffffffffffffffffff1673ffffffffffffffffffffffffffffffffffffffff168273ffffffffffffffffffffffffffffffffffffffff16149050919050565b611317612039565b73ffffffffffffffffffffffffffffffffffffffff166113356115fb565b73ffffffffffffffffffffffffffffffffffffffff161461138b576040517f08c379a0000000000000000000000000000000000000000000000000000000008152600401611382906134b5565b60405180910390fd5b6113956000612249565b565b826000801b8114156113de576040517f08c379a00000000000000000000000000000000000000000000000000000000081526004016113d590612d9d565b60405180910390fd5b6000600460008681526020019081526020016000209050600073ffffffffffffffffffffffffffffffffffffffff168160000160009054906101000a900473ffffffffffffffffffffffffffffffffffffffff1673ffffffffffffffffffffffffffffffffffffffff1614611488576040517f08c379a000000000000000000000000000000000000000000000000000000000815260040161147f90613521565b60405180910390fd5b611490612039565b8160000160006101000a81548173ffffffffffffffffffffffffffffffffffffffff021916908373ffffffffffffffffffffffffffffffffffffffff160217905550847f3f157384e9d478993bbc11fc4ab490f4d7975a438e9c74539f0fb5ad10b18ed860405160405180910390a261150b818686866121d6565b5050505050565b60008060009054906101000a900473ffffffffffffffffffffffffffffffffffffffff16905090565b611543612039565b73ffffffffffffffffffffffffffffffffffffffff166115616115fb565b73ffffffffffffffffffffffffffffffffffffffff16146115b7576040517f08c379a00000000000000000000000000000000000000000000000000000000081526004016115ae906134b5565b60405180910390fd5b80600360006101000a81548173ffffffffffffffffffffffffffffffffffffffff021916908373ffffffffffffffffffffffffffffffffffffffff16021790555050565b6000600160009054906101000a900473ffffffffffffffffffffffffffffffffffffffff16905090565b806000801b81141561166c576040517f08c379a000000000000000000000000000000000000000000000000000000000815260040161166390612d9d565b60405180910390fd5b816004600082815260200190815260200160002060000160009054906101000a900473ffffffffffffffffffffffffffffffffffffffff1673ffffffffffffffffffffffffffffffffffffffff166116c2612039565b73ffffffffffffffffffffffffffffffffffffffff1614611718576040517f08c379a000000000000000000000000000000000000000000000000000000000815260040161170f9061313e565b60405180910390fd5b826001600281111561172d5761172c612965565b5b6004600083815260200190815260200160002060000160149054906101000a900460ff16600281111561176357611762612965565b5b146117a3576040517f08c379a000000000000000000000000000000000000000000000000000000000815260040161179a90612f07565b60405180910390fd5b600060046000868152602001908152602001600020905060008160040180549050141561182357806001016000808201600090556001820160006117e791906123a4565b6002820160009055505060008160000160146101000a81548160ff0219169083600281111561181957611818612965565b5b0217905550611907565b806004016001826004018054905061183b9190613541565b8154811061184c5761184b612fb9565b5b90600052602060002090600302018160010160008201548160000155600182018160010190805461187e929190612352565b5060028201548160020155905050806004018054806118a05761189f613575565b5b60019003818190600052602060002090600302016000808201600090556001820160006118cd91906123a4565b60028201600090555050905560028160000160146101000a81548160ff0219169083600281111561190157611900612965565b5b02179055505b847f2a6834c0c06d12d4f87494ef5c80bc8a807e3ee35cfef0cf34cdadda288e0c0b60405160405180910390a25050505050565b60008073ffffffffffffffffffffffffffffffffffffffff16600360009054906101000a900473ffffffffffffffffffffffffffffffffffffffff1673ffffffffffffffffffffffffffffffffffffffff1614156119ce576040517f08c379a00000000000000000000000000000000000000000000000000000000081526004016119c5906131aa565b60405180910390fd5b816000801b811415611a15576040517f08c379a0000000000000000000000000000000000000000000000000000000008152600401611a0c90612d9d565b60405180910390fd5b6004600084815260200190815260200160002060070154915050919050565b600360009054906101000a900473ffffffffffffffffffffffffffffffffffffffff1681565b600360009054906101000a900473ffffffffffffffffffffffffffffffffffffffff1673ffffffffffffffffffffffffffffffffffffffff16611a9b612039565b73ffffffffffffffffffffffffffffffffffffffff1614611af1576040517f08c379a0000000000000000000000000000000000000000000000000000000008152600401611ae890612e75565b60405180910390fd5b80600460008481526020019081526020016000206007016000828254611b179190613541565b92505081905550817ff39ab4e679c103f9ab87f3e0b4539675e8d61f1e3570957d17e40349e3c13d6882604051611b4e9190612890565b60405180910390a25050565b611b62612039565b73ffffffffffffffffffffffffffffffffffffffff16611b806115fb565b73ffffffffffffffffffffffffffffffffffffffff1614611bd6576040517f08c379a0000000000000000000000000000000000000000000000000000000008152600401611bcd906134b5565b60405180910390fd5b611bdf8161230f565b50565b611bea612039565b73ffffffffffffffffffffffffffffffffffffffff16611c086115fb565b73ffffffffffffffffffffffffffffffffffffffff1614611c5e576040517f08c379a0000000000000000000000000000000000000000000000000000000008152600401611c55906134b5565b60405180910390fd5b600073ffffffffffffffffffffffffffffffffffffffff168173ffffffffffffffffffffffffffffffffffffffff161415611cce576040517f08c379a0000000000000000000000000000000000000000000000000000000008152600401611cc590613616565b60405180910390fd5b611cd781612249565b50565b600080611ce56123c5565b606080856000801b811415611d2f576040517f08c379a0000000000000000000000000000000000000000000000000000000008152600401611d2690612d9d565b60405180910390fd5b60006004600089815260200190815260200160002090508060000160149054906101000a900460ff168160000160009054906101000a900473ffffffffffffffffffffffffffffffffffffffff16826001018360040184600501826040518060600160405290816000820154815260200160018201805480602002602001604051908101604052809291908181526020018280548015611e2457602002820191906000526020600020905b8160009054906101000a900473ffffffffffffffffffffffffffffffffffffffff1673ffffffffffffffffffffffffffffffffffffffff1681526020019060010190808311611dda575b50505050508152602001600282015481525050925081805480602002602001604051908101604052809291908181526020016000905b82821015611f2e57838290600052602060002090600302016040518060600160405290816000820154815260200160018201805480602002602001604051908101604052809291908181526020018280548015611f0c57602002820191906000526020600020905b8160009054906101000a900473ffffffffffffffffffffffffffffffffffffffff1673ffffffffffffffffffffffffffffffffffffffff1681526020019060010190808311611ec2575b5050505050815260200160028201548152505081526020019060010190611e5a565b50505050915080805480602002602001604051908101604052809291908181526020016000905b82821015611fe757838290600052602060002090600202016040518060400160405290816000820160009054906101000a900473ffffffffffffffffffffffffffffffffffffffff1673ffffffffffffffffffffffffffffffffffffffff1673ffffffffffffffffffffffffffffffffffffffff16815260200160018201548152505081526020019060010190611f55565b50505050905096509650965096509650505091939590929450565b6000601460003690501015801561201e575061201d336112b6565b5b1561203257601436033560601c9050612036565b3390505b90565b6000612043612002565b905090565b60006001905060005b826001016001018054905081101561216357600083600101600101828154811061207e5761207d612fb9565b5b9060005260206000200160009054906101000a900473ffffffffffffffffffffffffffffffffffffffff16905060008460060160008373ffffffffffffffffffffffffffffffffffffffff1673ffffffffffffffffffffffffffffffffffffffff1681526020019081526020016000209050600073ffffffffffffffffffffffffffffffffffffffff168160000160009054906101000a900473ffffffffffffffffffffffffffffffffffffffff1673ffffffffffffffffffffffffffffffffffffffff16141561214e57600093505b5050808061215b90613017565b915050612051565b5080156121d15760028260000160146101000a81548160ff0219169083600281111561219257612191612965565b5b0217905550428260010160020181905550827f6a9f7e439228fbcd44f46bdf4ee04ab6831716c18980dd6a4b9a6a20102c044060405160405180910390a25b505050565b42846001016000018190555081818560010160010191906121f89291906123e6565b5060018460000160146101000a81548160ff0219169083600281111561222157612220612965565b5b02179055506122308385612048565b60003411156122435761224283610e92565b5b50505050565b6000600160009054906101000a900473ffffffffffffffffffffffffffffffffffffffff16905081600160006101000a81548173ffffffffffffffffffffffffffffffffffffffff021916908373ffffffffffffffffffffffffffffffffffffffff1602179055508173ffffffffffffffffffffffffffffffffffffffff168173ffffffffffffffffffffffffffffffffffffffff167f8be0079c531659141344cd1fd0a4f28419497f9722a3daafe3b4186f6b6457e060405160405180910390a35050565b806000806101000a81548173ffffffffffffffffffffffffffffffffffffffff021916908373ffffffffffffffffffffffffffffffffffffffff16021790555050565b8280548282559060005260206000209081019282156123935760005260206000209182015b82811115612392578254825591600101919060010190612377565b5b5090506123a09190612486565b5090565b50805460008255906000526020600020908101906123c29190612486565b50565b60405180606001604052806000815260200160608152602001600081525090565b828054828255906000526020600020908101928215612475579160200282015b8281111561247457823573ffffffffffffffffffffffffffffffffffffffff168260006101000a81548173ffffffffffffffffffffffffffffffffffffffff021916908373ffffffffffffffffffffffffffffffffffffffff16021790555091602001919060010190612406565b5b5090506124829190612486565b5090565b5b8082111561249f576000816000905550600101612487565b5090565b600080fd5b600080fd5b6000819050919050565b6124c0816124ad565b81146124cb57600080fd5b50565b6000813590506124dd816124b7565b92915050565b6000602082840312156124f9576124f86124a3565b5b6000612507848285016124ce565b91505092915050565b6000819050919050565b61252381612510565b811461252e57600080fd5b50565b6000813590506125408161251a565b92915050565b600073ffffffffffffffffffffffffffffffffffffffff82169050919050565b600061257182612546565b9050919050565b61258181612566565b811461258c57600080fd5b50565b60008135905061259e81612578565b92915050565b6000806000606084860312156125bd576125bc6124a3565b5b60006125cb868287016124ce565b93505060206125dc86828701612531565b92505060406125ed8682870161258f565b9150509250925092565b600080fd5b600080fd5b600080fd5b60008083601f84011261261c5761261b6125f7565b5b8235905067ffffffffffffffff811115612639576126386125fc565b5b60208301915083602082028301111561265557612654612601565b5b9250929050565b600080600060408486031215612675576126746124a3565b5b6000612683868287016124ce565b935050602084013567ffffffffffffffff8111156126a4576126a36124a8565b5b6126b086828701612606565b92509250509250925092565b600081519050919050565b600082825260208201905092915050565b60005b838110156126f65780820151818401526020810190506126db565b83811115612705576000848401525b50505050565b6000601f19601f8301169050919050565b6000612727826126bc565b61273181856126c7565b93506127418185602086016126d8565b61274a8161270b565b840191505092915050565b6000602082019050818103600083015261276f818461271c565b905092915050565b60006020828403121561278d5761278c6124a3565b5b600061279b8482850161258f565b91505092915050565b60008115159050919050565b6127b9816127a4565b82525050565b60006020820190506127d460008301846127b0565b92915050565b6127e381612566565b82525050565b60006020820190506127fe60008301846127da565b92915050565b600061280f82612546565b9050919050565b600061282182612804565b9050919050565b61283181612816565b811461283c57600080fd5b50565b60008135905061284e81612828565b92915050565b60006020828403121561286a576128696124a3565b5b60006128788482850161283f565b91505092915050565b61288a81612510565b82525050565b60006020820190506128a56000830184612881565b92915050565b6000819050919050565b60006128d06128cb6128c684612546565b6128ab565b612546565b9050919050565b60006128e2826128b5565b9050919050565b60006128f4826128d7565b9050919050565b612904816128e9565b82525050565b600060208201905061291f60008301846128fb565b92915050565b6000806040838503121561293c5761293b6124a3565b5b600061294a858286016124ce565b925050602061295b85828601612531565b9150509250929050565b7f4e487b7100000000000000000000000000000000000000000000000000000000600052602160045260246000fd5b600381106129a5576129a4612965565b5b50565b60008190506129b682612994565b919050565b60006129c6826129a8565b9050919050565b6129d6816129bb565b82525050565b6129e581612510565b82525050565b600081519050919050565b600082825260208201905092915050565b6000819050602082019050919050565b612a2081612566565b82525050565b6000612a328383612a17565b60208301905092915050565b6000602082019050919050565b6000612a56826129eb565b612a6081856129f6565b9350612a6b83612a07565b8060005b83811015612a9c578151612a838882612a26565b9750612a8e83612a3e565b925050600181019050612a6f565b5085935050505092915050565b6000606083016000830151612ac160008601826129dc565b5060208301518482036020860152612ad98282612a4b565b9150506040830151612aee60408601826129dc565b508091505092915050565b600081519050919050565b600082825260208201905092915050565b6000819050602082019050919050565b6000606083016000830151612b3d60008601826129dc565b5060208301518482036020860152612b558282612a4b565b9150506040830151612b6a60408601826129dc565b508091505092915050565b6000612b818383612b25565b905092915050565b6000602082019050919050565b6000612ba182612af9565b612bab8185612b04565b935083602082028501612bbd85612b15565b8060005b85811015612bf95784840389528151612bda8582612b75565b9450612be583612b89565b925060208a01995050600181019050612bc1565b50829750879550505050505092915050565b600081519050919050565b600082825260208201905092915050565b6000819050602082019050919050565b604082016000820151612c4d6000850182612a17565b506020820151612c6060208501826129dc565b50505050565b6000612c728383612c37565b60408301905092915050565b6000602082019050919050565b6000612c9682612c0b565b612ca08185612c16565b9350612cab83612c27565b8060005b83811015612cdc578151612cc38882612c66565b9750612cce83612c7e565b925050600181019050612caf565b5085935050505092915050565b600060a082019050612cfe60008301886129cd565b612d0b60208301876127da565b8181036040830152612d1d8186612aa9565b90508181036060830152612d318185612b96565b90508181036080830152612d458184612c8b565b90509695505050505050565b7f496e76616c696420646f63756d656e7420686173680000000000000000000000600082015250565b6000612d876015836126c7565b9150612d9282612d51565b602082019050919050565b60006020820190508181036000830152612db681612d7a565b9050919050565b7f416c7265616479207369676e65642062792073656e6465720000000000000000600082015250565b6000612df36018836126c7565b9150612dfe82612dbd565b602082019050919050565b60006020820190508181036000830152612e2281612de6565b9050919050565b7f53656e646572206973206e6f74207061796d6173746572000000000000000000600082015250565b6000612e5f6017836126c7565b9150612e6a82612e29565b602082019050919050565b60006020820190508181036000830152612e8e81612e52565b9050919050565b7f446f63756d656e74206973206e6f742070656e64696e6720636572746966696360008201527f6174696f6e000000000000000000000000000000000000000000000000000000602082015250565b6000612ef16025836126c7565b9150612efc82612e95565b604082019050919050565b60006020820190508181036000830152612f2081612ee4565b9050919050565b7f496e73756666696369656e742062616c616e6365202d206e6f7420656e6f756760008201527f682066756e647320666f72207369676e696e672074686520646f63756d656e74602082015250565b6000612f836040836126c7565b9150612f8e82612f27565b604082019050919050565b60006020820190508181036000830152612fb281612f76565b9050919050565b7f4e487b7100000000000000000000000000000000000000000000000000000000600052603260045260246000fd5b7f4e487b7100000000000000000000000000000000000000000000000000000000600052601160045260246000fd5b600061302282612510565b91507fffffffffffffffffffffffffffffffffffffffffffffffffffffffffffffffff82141561305557613054612fe8565b5b600182019050919050565b7f53656e646572206973206e6f74207265717569726564207369676e61746f7279600082015250565b60006130966020836126c7565b91506130a182613060565b602082019050919050565b600060208201905081810360008301526130c581613089565b9050919050565b7f53656e646572206973206e6f7420646f63756d656e74207375626d697474657260008201527f206f7220646f63756d656e7420776173206e6f74207375626d69747465640000602082015250565b6000613128603e836126c7565b9150613133826130cc565b604082019050919050565b600060208201905081810360008301526131578161311b565b9050919050565b7f5061796d617374657220636f6e7472616374206e6f7420736574000000000000600082015250565b6000613194601a836126c7565b915061319f8261315e565b602082019050919050565b600060208201905081810360008301526131c381613187565b9050919050565b7f4e6f2062616c616e636520746f20776974686472617700000000000000000000600082015250565b60006132006016836126c7565b915061320b826131ca565b602082019050919050565b6000602082019050818103600083015261322f816131f3565b9050919050565b61323f81612804565b82525050565b600060408201905061325a6000830185612881565b6132676020830184613236565b9392505050565b7f4e6f2065746865722070726f7669646564000000000000000000000000000000600082015250565b60006132a46011836126c7565b91506132af8261326e565b602082019050919050565b600060208201905081810360008301526132d381613297565b9050919050565b60006132e582612510565b91506132f083612510565b9250827fffffffffffffffffffffffffffffffffffffffffffffffffffffffffffffffff0382111561332557613324612fe8565b5b828201905092915050565b600081905092915050565b50565b600061334b600083613330565b91506133568261333b565b600082019050919050565b600061336c8261333e565b9150819050919050565b7f4661696c656420746f2066756e64207061796d6173746572202f2072656c617960008201527f2068756200000000000000000000000000000000000000000000000000000000602082015250565b60006133d26024836126c7565b91506133dd82613376565b604082019050919050565b60006020820190508181036000830152613401816133c5565b9050919050565b7f4e487b7100000000000000000000000000000000000000000000000000000000600052602260045260246000fd5b6000600282049050600182168061344f57607f821691505b6020821081141561346357613462613408565b5b50919050565b7f4f776e61626c653a2063616c6c6572206973206e6f7420746865206f776e6572600082015250565b600061349f6020836126c7565b91506134aa82613469565b602082019050919050565b600060208201905081810360008301526134ce81613492565b9050919050565b7f446f63756d656e742077617320616c7265616479207375626d69747465640000600082015250565b600061350b601e836126c7565b9150613516826134d5565b602082019050919050565b6000602082019050818103600083015261353a816134fe565b9050919050565b600061354c82612510565b915061355783612510565b92508282101561356a57613569612fe8565b5b828203905092915050565b7f4e487b7100000000000000000000000000000000000000000000000000000000600052603160045260246000fd5b7f4f776e61626c653a206e6577206f776e657220697320746865207a65726f206160008201527f6464726573730000000000000000000000000000000000000000000000000000602082015250565b60006136006026836126c7565b915061360b826135a4565b604082019050919050565b6000602082019050818103600083015261362f816135f3565b905091905056fea26469706673582212203889902c71b76f58a4b4a14dfbd46a3567b7873775f698b4c47c90f770e948f364736f6c634300080b0033",
  "immutableReferences": {},
  "source": "// SPDX-License-Identifier: MIT\n\npragma solidity 0.8.11;\n\nimport \"@opengsn/contracts/src/BaseRelayRecipient.sol\";\nimport \"@openzeppelin/contracts/access/Ownable.sol\";\nimport \"./EthNOSPaymaster.sol\";\n\n/**\n * @title Ethereum Notary Service\n * @author Martin Pozor\n * @dev Derives BaseRelayRecipient to allow GSN meta-transactions - see https://docs.opengsn.org/javascript-client/tutorial.html\n */\ncontract EthNOS is BaseRelayRecipient, Ownable {\n    // TODO:\n    // - UI: busy indicator for state change operations\n    //   - wait();\n    //   - https://docs.ethers.io/v5/api/contract/contract/\n    //   - https://docs.ethers.io/v5/api/providers/types/#providers-TransactionResponse\n    //   - https://docs.ethers.io/v5/api/providers/types/#providers-TransactionReceipt\n    //   - https://blog.ricmoo.com/highlights-ethers-js-may-2021-2826e858277d\n    // * start-with-gsn does not work - gsn exits early\n    //   - extract GsnTestEnvironment.startGsn to separate js script\n    //      - run the script after ganache, before migrate\n    //      - in migrate, use forwarder/relayer addresses from step above (through env variables or filesystem)\n    //      - script must be kept running, migrate must wait for initialization\n    // - UI: verify document presence for state change operations\n    // - Sometimes withdrawing: Error: insufficient funds for intrinsic transaction cost\n    //   - contract accounting shows more eth than it is on paymaster\n    // - (UI: resolve ENS addresses)\n    // - (calculate and set post gas usage)\n    // - (can required amount for etherless signing be calculated?)\n    // - (update packages?)\n    // - try clean run\n    //    - tests\n    //    - web\n    //    - (also Windows)\n    // - deploy\n    //   - smart contracts (Rinkeby)\n    //     - deployed address.txt\n    //   - (verify and publish source code on etherscan)\n    //   * web (hosting)\n    // - prepare for submission\n    //   - amend and document design pattern decisions (at least 2, at last 1 lib or iface)\n    //     - open gsn derived\n    //     - access control\n    //     - inter contract execution???\n    //   - amend and document attack vectors protections (at least 2)\n    //     - specific compiler pragma\n    //     - require, assert, revert\n    //     - modifiers\n    //     - pull over push\n    //   - amend/prepare README.md (use example project as template)\n    //     - add address\n    //   - known issues:\n    //     - issue in Chrome: if navigated too quickly after browser start, it will not be able to connect to MetaMask until refresh\n    //     - harmless error on etherless sign: https://forum.opengsn.org/t/metamask-rpc-error-already-known/93/2\n    //     - etherless signing sometimes asks for signing twice (when confirmed too quickly?)\n    //   - possible improvements:\n    //     - UI: fund on submit, amend/delete, show history, show orphaned signatories\n    //   - cleanup or move TODOs and notes\n    //   - (certification state chart)\n    //   - screencast\n    //     - plan\n    //     - make\n    //   - finish course content\n\n    // TODO: notes\n    // - use yarn (opengsn was not buildable in npm)\n    // - GSN worked on Rinkeby, not Ropsten\n    // - manual run:\n    //   - run Ganache: net=`date \"+%j%H%M%S\"` && ganache-cli --networkId $net --chainId $net -v\n    //   - run GSN: gsn start\n    //   - run Truffle: truffle console\n    // - clean run:\n    //   - install nvm\n    //   - install node (npm)\n    //   - npm install -g yarn\n    //   - npm install -g truffle\n    //   - npm install -g @angular/cli\n\n    /// Certification state of document.\n    enum CertificationState {\n        /// Document was not submitted for certification.\n        NotSubmitted,\n        /// Document is pending certification. Some required signatories did not sign the document yet.\n        CertificationPending,\n        /// Document is certified. All required signatories (if applicable) did sign the document.\n        Certified\n    }\n\n    /// Represents required or completed act of signing the document.\n    struct SigningInfo {\n        /// Address of signatory.\n        address signatory;\n        /// Time of signing. Zero if not signed.\n        /// @dev seconds since unix epoch\n        uint signTime;\n    }\n\n    /// Represents pending or completed act of certification of the document.\n    struct CertificationInfo {\n        /// Time of document submission / amendment.\n        /// @dev seconds since unix epoch\n        uint submissionTime;\n        /// Signatories required for certification.\n        address[] requiredSignatories;\n        /// Time of document certification (time when document is signed by all required\n        /// signatories). Zero if certification is pending.\n        /// @dev seconds since unix epoch\n        uint certificationTime;\n    }\n\n    /// Represents all signing and certification information for the document.\n    struct DocumentInfo {\n        // Account which submitted the document for certification. Zero if not submitted yet.\n        address submitter;\n        // Certification state of the document.\n        CertificationState certificationState;\n        // Current certification information of the document.\n        CertificationInfo currentCertification;\n        // Historical certification information of the document (if certification was amended).\n        CertificationInfo[] pastCertifications;\n        // All signatures of the document.\n        SigningInfo[] signatures;\n        // All signatures of the document (key is signatory address).\n        mapping (address => SigningInfo) signaturesForSignatories;\n        // Balance to allow ether-less signing by required signatories using GSN.\n        uint signingBalance;\n    }\n\n    /// @inheritdoc IRelayRecipient\n    string public override versionRecipient = \"2.2.4\";\n\n    /// Paymaster contract which manages paying for transactions using GSN.\n    EthNOSPaymaster public ethNOSPaymaster;\n\n    /// Signing and certification information for all documents (key is keccak256 hash of the document).\n    mapping (bytes32 => DocumentInfo) private documents;\n\n    /// Event emited when document is submitted for certification.\n    /// @param documentHash Keccak256 hash of the document.\n    event DocumentSubmitted(bytes32 indexed documentHash);\n\n    /// Event emited when certification submission of previously submitted document is amended.\n    /// @param documentHash Keccak256 hash of the document.\n    event DocumentSubmissionAmended(bytes32 indexed documentHash);\n\n    /// Event emited when certification submission of previously submitted document is delete.\n    /// @param documentHash Keccak256 hash of the document.\n    event DocumentSubmissionDeleted(bytes32 indexed documentHash);\n\n    /// Event emited when paymaster (relay hub) is funded with ether to allow ether-less signing by required signatories using GSN.\n    /// @param documentHash Keccak256 hash of the document.\n    /// @param amount Amount funded for signing the specified document.\n    event DocumentSigningFunded(bytes32 indexed documentHash, uint amount);\n\n    /// Event emited when ether previously funded for ether-less signing is withdrawn from paymaster (relay hub).\n    /// @param documentHash Keccak256 hash of the document.\n    /// @param amount Amount withdrawn from signing the specified document.\n    event DocumentSigningBalanceWithdrawn(bytes32 indexed documentHash, uint amount);\n\n    /// Event emited when document is signed.\n    /// @param documentHash Keccak256 hash of the document.\n    /// @param signatory Address of the signatory.\n    event DocumentSigned(bytes32 indexed documentHash, address signatory);\n\n    /// Event emited when ether-less signing was performed and spent amount is charged\n    /// (substracted from balance for signing the specified document).\n    /// @param documentHash Keccak256 hash of the document.\n    /// @param amount Amount charged for signing the specified document.\n    event DocumentSigningCharged(bytes32 indexed documentHash, uint amount);\n\n    /// Event emited when document is certified (all requited signatories signed the document).\n    /// @param documentHash Keccak256 hash of the document.\n    event DocumentCertified(bytes32 indexed documentHash);\n\n    /// Check paymaster contract is set.\n    modifier isEthNOSPaymasterSet() {\n        require(address(ethNOSPaymaster) != address(0), \"Paymaster contract not set\");\n        _;\n      }\n\n    /**\n     * Check document hash is not empty.\n     *\n     * @param documentHash Keccak256 hash of the document.\n     */\n    modifier documentValid(bytes32 documentHash) {\n        require(documentHash != 0, \"Invalid document hash\");\n        _;\n      }\n\n    /**\n     * Check sender is document submitter.\n     *\n     * @param documentHash Keccak256 hash of the document.\n     */\n    modifier onlySubmitter(bytes32 documentHash) {\n        require(_msgSender() == documents[documentHash].submitter, \"Sender is not document submitter or document was not submitted\");\n        _;\n    }\n\n    /// Check sender is paymaster.\n    modifier onlyPaymaster() {\n        require(_msgSender() == address(ethNOSPaymaster), \"Sender is not paymaster\");\n        _;\n    }\n\n    /**\n     * Check document is pending certification.\n     *\n     * @param documentHash Keccak256 hash of the document.\n     */\n    modifier onlyPendingCertification(bytes32 documentHash) {\n        require(documents[documentHash].certificationState == CertificationState.CertificationPending, \"Document is not pending certification\");\n        _;\n    }\n\n    /**\n     * Sets trusted forwarder for transactions using GSN.\n     *\n     * @param _trustedForwarder Trusted forwarder for transactions using GSN.\n     */\n    function setTrustedForwarder(address _trustedForwarder)\n        external\n        onlyOwner {\n        _setTrustedForwarder(_trustedForwarder);\n    }\n\n    /**\n     * Sets paymaster contract which manages paying for transactions using GSN.\n     *\n     * @param _ethNOSPaymaster Paymaster contract which manages paying for transactions using GSN.\n     */\n    function setEthNOSPaymaster(EthNOSPaymaster _ethNOSPaymaster)\n        external\n        onlyOwner {\n        ethNOSPaymaster = _ethNOSPaymaster;\n    }\n\n    /**\n     * Submits document for certification.\n     *\n     * Note that document can be certified as a result of calling this function. This can happen\n     * if no signatories are required or if the document was already signed by all required\n     * signatories (see signDocument).\n     *\n     * Can receive ether - if not zero, then paymaster will be funded to allow ether-less signing (see fundDocumentSigning) -\n     * only allowed when document is not immediately certified.\n     *\n     * @param documentHash Keccak256 hash of the document (computed off-chain). Previously submitted documents are not allowed.\n     * @param requiredSignatories Addresses of required signatories (can be empty if only proof of existence is required).\n     */\n    function submitDocument(\n        bytes32 documentHash,\n        address[] calldata requiredSignatories)\n        external\n        payable\n        documentValid(documentHash) {\n        DocumentInfo storage document = documents[documentHash];\n\n        require(document.submitter == address(0), \"Document was already submitted\");\n\n        document.submitter = _msgSender();\n\n        emit DocumentSubmitted(documentHash);\n\n        submitDocumentInternal(\n            document,\n            documentHash,\n            requiredSignatories);\n    }\n\n    /**\n     * Amends certification submission of previously submitted document -\n     * allows to amend required signatories (correcting mistake, etc.).\n     *\n     * Only allowed to be called by document submitter.\n     *\n     * If the document was already signed, the records will be retained;\n     * also if the document was already certified (signed by all signatories),\n     * the certification will be retained - these acts are irrevokable.\n     * Instead, the document will be allowed to be re-certified with amended signatories.\n     *\n     * Note that document can be certified as a result of calling this function. This can happen\n     * if no signatories are required or if the document was already signed by all required\n     * signatories (see signDocument).\n     *\n     * Can receive ether - if not zero, then paymaster will be funded to allow ether-less signing (see fundDocumentSigning) -\n     * only allowed when document is not immediately certified.\n     *\n     * @param documentHash Keccak256 hash of the document (computed off-chain). Only previously submitted documents are allowed.\n     * @param requiredSignatories Addresses of required signatories (can be empty if only proof of existence is required).\n     */\n    function amendDocumentSubmission(\n        bytes32 documentHash,\n        address[] calldata requiredSignatories)\n        external\n        payable\n        documentValid(documentHash)\n        onlySubmitter(documentHash) {\n        DocumentInfo storage document = documents[documentHash];\n\n        if (document.certificationState == CertificationState.Certified)\n            document.pastCertifications.push(document.currentCertification);\n\n        delete document.currentCertification;\n\n        emit DocumentSubmissionAmended(documentHash);\n\n        submitDocumentInternal(\n            document,\n            documentHash,\n            requiredSignatories);\n    }\n\n    /// See submitDocument and amendDocumentSubmission.\n    function submitDocumentInternal(\n        DocumentInfo storage document,\n        bytes32 documentHash,\n        address[] calldata requiredSignatories)\n        private {\n        document.currentCertification.submissionTime = block.timestamp;\n        document.currentCertification.requiredSignatories = requiredSignatories;\n\n        document.certificationState = CertificationState.CertificationPending;\n        updateDocumentCertification(documentHash, document);\n\n        if (msg.value > 0)\n            fundDocumentSigning(documentHash);\n    }\n\n    /**\n     * Deletes certification submission of previously submitted document (correcting mistake, etc.).\n     *\n     * Only allowed to be called by document submitter.\n     * Document must be pending to be certified (note that also previously certified\n     * document can be pending certification again due to submission amendment).\n     *\n     * If the document was already signed, the records will be retained;\n     * also if the document was already certified (signed by all signatories),\n     * the certification will be retained - these acts are irrevokable.\n     * Instead, the document will be not pending signing any more.\n     *\n     * @param documentHash Keccak256 hash of the document (computed off-chain). Only document pending certification is allowed.\n     */\n    function deleteDocumentSubmission(\n        bytes32 documentHash)\n        external\n        documentValid(documentHash)\n        onlySubmitter(documentHash)\n        onlyPendingCertification(documentHash) {\n        DocumentInfo storage document = documents[documentHash];\n\n        if (document.pastCertifications.length == 0) {\n            delete document.currentCertification;\n            document.certificationState = CertificationState.NotSubmitted;\n        }\n        else {\n            document.currentCertification = document.pastCertifications[document.pastCertifications.length - 1];\n            document.pastCertifications.pop();\n            document.certificationState = CertificationState.Certified;\n        }\n\n        emit DocumentSubmissionDeleted(documentHash);\n    }\n\n    /**\n     * Funds paymaster (relay hub) with ether to allow ether-less signing (using fundDocumentSigning) by required signatories using GSN.\n     * Amount will be usable only for signing the specified document.\n     *\n     * Only allowed when EthNOSPaymaster is set (etherless signing is supported).\n     * Only allowed to be called by document submitter.\n     *\n     * @param documentHash Keccak256 hash of the document (computed off-chain). Only document pending certification is allowed.\n     */\n    function fundDocumentSigning(\n        bytes32 documentHash)\n        public\n        payable\n        isEthNOSPaymasterSet\n        documentValid(documentHash)\n        onlySubmitter(documentHash)\n        onlyPendingCertification(documentHash) {\n        require(msg.value > 0, \"No ether provided\");\n\n        DocumentInfo storage document = documents[documentHash];\n\n        document.signingBalance += msg.value;\n\n        // sends ether to paymaster (it will be forwarded to relay hub)\n        (bool sent, bytes memory data) = payable(ethNOSPaymaster).call{value: msg.value}(\"\");\n        (data);\n        require(sent, \"Failed to fund paymaster / relay hub\");\n\n        emit DocumentSigningFunded(documentHash, msg.value);\n    }\n\n    /**\n     * Withdraws ether previously funded for ether-less signing (using fundDocumentSigning) from paymaster (relay hub).\n     * This is usually called after document is certified to get unspent amount back to submitter,\n     * but it is not a requirement.\n     *\n     * Only allowed when EthNOSPaymaster is set (etherless signing is supported).\n     * Only allowed to be called by document submitter.\n     *\n     * @param documentHash Keccak256 hash of the document (computed off-chain). Only previously submitted documents are allowed.\n     */\n    function withdrawDocumentSigningBalance(\n        bytes32 documentHash)\n        external\n        isEthNOSPaymasterSet\n        documentValid(documentHash)\n        onlySubmitter(documentHash) {\n        DocumentInfo storage document = documents[documentHash];\n\n        require(document.signingBalance > 0, \"No balance to withdraw\");\n\n        ethNOSPaymaster.withdrawRelayHubDeposit(document.signingBalance, payable(_msgSender()));\n\n        emit DocumentSigningBalanceWithdrawn(documentHash, document.signingBalance);\n\n        document.signingBalance = 0;\n    }\n\n    /**\n     * Checks balance of ether previously funded for ether-less signing (using fundDocumentSigning).\n     *\n     * Only allowed when EthNOSPaymaster is set (etherless signing is supported).\n     *\n     * @param documentHash Keccak256 hash of the document (computed off-chain). Only previously submitted documents are allowed.\n     *\n     * @return signingBalance Balance of ether previously funded for ether-less signing.\n     */\n    function getDocumentSigningBalance(\n        bytes32 documentHash)\n        external\n        view\n        isEthNOSPaymasterSet\n        documentValid(documentHash)\n        returns (uint signingBalance) {\n        return documents[documentHash].signingBalance;\n    }\n\n    /**\n     * Signs document by sender's account.\n     *\n     * If the document was previously submitted for certification, its certification\n     * state will be updated - if the signatory is last of the required signatories,\n     * document will be certified.\n     *\n     * Act of document signing (and possible consequent act of certification) is irrevokable.\n     *\n     * Note that act of document signing can be done independently of submission\n     * for certification (or before it happens).\n     *\n     * @param documentHash Keccak256 hash of the document (computed off-chain).\n     */\n    function signDocument(\n        bytes32 documentHash)\n        external\n        documentValid(documentHash) {\n        DocumentInfo storage document = documents[documentHash];\n\n        require(document.signaturesForSignatories[_msgSender()].signTime == 0, \"Already signed by sender\");\n\n        SigningInfo memory newSignature = SigningInfo({\n            signatory: _msgSender(),\n            signTime: block.timestamp\n        });\n\n        document.signaturesForSignatories[_msgSender()] = newSignature;\n        document.signatures.push(newSignature);\n\n        emit DocumentSigned(documentHash, _msgSender());\n\n        if (document.certificationState == CertificationState.CertificationPending)\n            updateDocumentCertification(documentHash, document);\n    }\n\n    /**\n     * Checks if ether-less call of signDocument (using GSN) is approved. Revert means not appproved.\n     *\n     * Not for direct use - only can be called from paymaster (initiated by GSN relayer).\n     *\n     * Before GSN relayer calls signDocument, it will call this method (through paymaster)\n     * and will check all required conditions of funding the relayed call.\n     *\n     * @param documentHash Keccak256 hash of the document. Only document pending certification is allowed.\n     * @param maxAmountToBeCharged Maximum amout which can be charged by GSN relayer. Previously funded balance (using fundDocumentSigning) cannot be lower.\n     * @param originalSender Original sender of the intended signDocument call. Must be one of the required document signatories.\n     */\n    function approveRelayedSignDocumentCall(\n        bytes32 documentHash,\n        uint maxAmountToBeCharged,\n        address originalSender)\n        external\n        view\n        onlyPaymaster\n        documentValid(documentHash)\n        onlyPendingCertification(documentHash) {\n        DocumentInfo storage document = documents[documentHash];\n\n        require(maxAmountToBeCharged <= document.signingBalance, \"Insufficient balance - not enough funds for signing the document\");\n\n        bool isSenderRequiredSignatory = false;\n\n        for (uint i = 0; i < document.currentCertification.requiredSignatories.length; i++) {\n            if (document.currentCertification.requiredSignatories[i] == originalSender) {\n                isSenderRequiredSignatory = true;\n                break;\n            }\n        }\n\n        require(isSenderRequiredSignatory, \"Sender is not required signatory\");\n    }\n\n    /**\n     * Charges ether used for ether-less document signing.\n     *\n     * Not for direct use - only can be called from paymaster (initiated by GSN relayer).\n     *\n     * After GSN relayer calls signDocument, it will call this method (through paymaster)\n     * and will let this contract know the amount which was charged for the call.\n     * This is in order to trigger required accounting (ether used will be substracted from\n     * the previously funded amount usable for signing the specified document).\n     *\n     * @param documentHash Keccak256 hash of the document.\n     * @param amountCharged Amount charged by GSN relayer.\n     */\n    function chargeRelayedSignDocumentCall(\n        bytes32 documentHash,\n        uint amountCharged)\n        external\n        onlyPaymaster {\n        // - no need to validate the document - it was previously checked in approveRelayedSignDocumentCall\n        // (there is no way to call this function without making approveRelayedSignDocumentCall call first)\n        // - no need to validate amountCharged - it was previously checked in approveRelayedSignDocumentCall\n        documents[documentHash].signingBalance -= amountCharged;\n\n        emit DocumentSigningCharged(documentHash, amountCharged);\n    }\n\n    /**\n     * Returns certification state of given document along with\n     * comprehensive information about pending or completed certification(s).\n     *\n     * @param documentHash Keccak256 hash of the document (computed off-chain).\n     *\n     * @return certificationState Certification state.\n     * @return submitter Submitter of the certification. Zero if certificationState = NotSubmitted (and not deleted).\n     * @return currentCertification Current pending or completed certification information.\n     * @return pastCertifications Historical completed certifications (if submission was amended).\n     * @return signatures Signatures (including signatures not required by certification).\n     */\n    function verifyDocument(\n        bytes32 documentHash)\n        external\n        view\n        documentValid(documentHash)\n        returns (\n            CertificationState certificationState,\n            address submitter,\n            CertificationInfo memory currentCertification,\n            CertificationInfo[] memory pastCertifications,\n            SigningInfo[] memory signatures) {\n        DocumentInfo storage document = documents[documentHash];\n\n        return(\n            document.certificationState,\n            document.submitter,\n            document.currentCertification,\n            document.pastCertifications,\n            document.signatures);\n    }\n\n    /**\n     * Updates certification state of the document.\n     * If the document was signed by all required signatories, it is marked as certified.\n     *\n     * @param documentHash Keccak256 hash of the document.\n     * @param document Document data.\n     */\n    function updateDocumentCertification(\n        bytes32 documentHash,\n        DocumentInfo storage document)\n        private {\n        bool shouldBeCertified = true;\n\n        for (uint i = 0; i < document.currentCertification.requiredSignatories.length; i++) {\n            address requiredSignatory = document.currentCertification.requiredSignatories[i];\n\n            SigningInfo storage recordedSignature = document.signaturesForSignatories[requiredSignatory];\n\n            if (recordedSignature.signatory == address(0))\n                shouldBeCertified = false;\n        }\n\n        if (shouldBeCertified) {\n            document.certificationState = CertificationState.Certified;\n            document.currentCertification.certificationTime = block.timestamp;\n\n            emit DocumentCertified(documentHash);\n        }\n    }\n\n    // @dev This is to fix multiple inheritance conflict.\n    function _msgSender()\n        internal view\n        override(Context, BaseRelayRecipient)\n        returns (address sender) {\n        sender = BaseRelayRecipient._msgSender();\n    }\n\n    // @dev This is to fix multiple inheritance conflict.\n    function _msgData()\n        internal view\n        override(Context, BaseRelayRecipient)\n        returns (bytes calldata) {\n        return BaseRelayRecipient._msgData();\n    }\n}",
  "sourcePath": "/home/martin/repos/blockchain-developer-bootcamp-final-project/contracts/EthNOS.sol",
  "compiler": {
    "name": "solc",
    "version": "0.8.11+commit.d7f03943.Emscripten.clang"
  },
  "schemaVersion": "3.4.3",
  "updatedAt": "2022-01-12T22:23:46.077Z",
  "networkType": "ethereum",
  "devdoc": {
    "author": "Martin Pozor",
    "details": "Derives BaseRelayRecipient to allow GSN meta-transactions - see https://docs.opengsn.org/javascript-client/tutorial.html",
    "events": {
      "DocumentCertified(bytes32)": {
        "params": {
          "documentHash": "Keccak256 hash of the document."
        }
      },
      "DocumentSigned(bytes32,address)": {
        "params": {
          "documentHash": "Keccak256 hash of the document.",
          "signatory": "Address of the signatory."
        }
      },
      "DocumentSigningBalanceWithdrawn(bytes32,uint256)": {
        "params": {
          "amount": "Amount withdrawn from signing the specified document.",
          "documentHash": "Keccak256 hash of the document."
        }
      },
      "DocumentSigningCharged(bytes32,uint256)": {
        "params": {
          "amount": "Amount charged for signing the specified document.",
          "documentHash": "Keccak256 hash of the document."
        }
      },
      "DocumentSigningFunded(bytes32,uint256)": {
        "params": {
          "amount": "Amount funded for signing the specified document.",
          "documentHash": "Keccak256 hash of the document."
        }
      },
      "DocumentSubmissionAmended(bytes32)": {
        "params": {
          "documentHash": "Keccak256 hash of the document."
        }
      },
      "DocumentSubmissionDeleted(bytes32)": {
        "params": {
          "documentHash": "Keccak256 hash of the document."
        }
      },
      "DocumentSubmitted(bytes32)": {
        "params": {
          "documentHash": "Keccak256 hash of the document."
        }
      }
    },
    "kind": "dev",
    "methods": {
      "amendDocumentSubmission(bytes32,address[])": {
        "params": {
          "documentHash": "Keccak256 hash of the document (computed off-chain). Only previously submitted documents are allowed.",
          "requiredSignatories": "Addresses of required signatories (can be empty if only proof of existence is required)."
        }
      },
      "approveRelayedSignDocumentCall(bytes32,uint256,address)": {
        "params": {
          "documentHash": "Keccak256 hash of the document. Only document pending certification is allowed.",
          "maxAmountToBeCharged": "Maximum amout which can be charged by GSN relayer. Previously funded balance (using fundDocumentSigning) cannot be lower.",
          "originalSender": "Original sender of the intended signDocument call. Must be one of the required document signatories."
        }
      },
      "chargeRelayedSignDocumentCall(bytes32,uint256)": {
        "params": {
          "amountCharged": "Amount charged by GSN relayer.",
          "documentHash": "Keccak256 hash of the document."
        }
      },
      "deleteDocumentSubmission(bytes32)": {
        "params": {
          "documentHash": "Keccak256 hash of the document (computed off-chain). Only document pending certification is allowed."
        }
      },
      "fundDocumentSigning(bytes32)": {
        "params": {
          "documentHash": "Keccak256 hash of the document (computed off-chain). Only document pending certification is allowed."
        }
      },
      "getDocumentSigningBalance(bytes32)": {
        "params": {
          "documentHash": "Keccak256 hash of the document (computed off-chain). Only previously submitted documents are allowed."
        },
        "returns": {
          "signingBalance": "Balance of ether previously funded for ether-less signing."
        }
      },
      "owner()": {
        "details": "Returns the address of the current owner."
      },
      "renounceOwnership()": {
        "details": "Leaves the contract without owner. It will not be possible to call `onlyOwner` functions anymore. Can only be called by the current owner. NOTE: Renouncing ownership will leave the contract without an owner, thereby removing any functionality that is only available to the owner."
      },
      "setEthNOSPaymaster(address)": {
        "params": {
          "_ethNOSPaymaster": "Paymaster contract which manages paying for transactions using GSN."
        }
      },
      "setTrustedForwarder(address)": {
        "params": {
          "_trustedForwarder": "Trusted forwarder for transactions using GSN."
        }
      },
      "signDocument(bytes32)": {
        "params": {
          "documentHash": "Keccak256 hash of the document (computed off-chain)."
        }
      },
      "submitDocument(bytes32,address[])": {
        "params": {
          "documentHash": "Keccak256 hash of the document (computed off-chain). Previously submitted documents are not allowed.",
          "requiredSignatories": "Addresses of required signatories (can be empty if only proof of existence is required)."
        }
      },
      "transferOwnership(address)": {
        "details": "Transfers ownership of the contract to a new account (`newOwner`). Can only be called by the current owner."
      },
      "verifyDocument(bytes32)": {
        "params": {
          "documentHash": "Keccak256 hash of the document (computed off-chain)."
        },
        "returns": {
          "certificationState": "Certification state.",
          "currentCertification": "Current pending or completed certification information.",
          "pastCertifications": "Historical completed certifications (if submission was amended).",
          "signatures": "Signatures (including signatures not required by certification).",
          "submitter": "Submitter of the certification. Zero if certificationState = NotSubmitted (and not deleted)."
        }
      },
      "withdrawDocumentSigningBalance(bytes32)": {
        "params": {
          "documentHash": "Keccak256 hash of the document (computed off-chain). Only previously submitted documents are allowed."
        }
      }
    },
    "title": "Ethereum Notary Service",
    "version": 1
  },
  "userdoc": {
    "events": {
      "DocumentCertified(bytes32)": {
        "notice": "Event emited when document is certified (all requited signatories signed the document)."
      },
      "DocumentSigned(bytes32,address)": {
        "notice": "Event emited when document is signed."
      },
      "DocumentSigningBalanceWithdrawn(bytes32,uint256)": {
        "notice": "Event emited when ether previously funded for ether-less signing is withdrawn from paymaster (relay hub)."
      },
      "DocumentSigningCharged(bytes32,uint256)": {
        "notice": "Event emited when ether-less signing was performed and spent amount is charged (substracted from balance for signing the specified document)."
      },
      "DocumentSigningFunded(bytes32,uint256)": {
        "notice": "Event emited when paymaster (relay hub) is funded with ether to allow ether-less signing by required signatories using GSN."
      },
      "DocumentSubmissionAmended(bytes32)": {
        "notice": "Event emited when certification submission of previously submitted document is amended."
      },
      "DocumentSubmissionDeleted(bytes32)": {
        "notice": "Event emited when certification submission of previously submitted document is delete."
      },
      "DocumentSubmitted(bytes32)": {
        "notice": "Event emited when document is submitted for certification."
      }
    },
    "kind": "user",
    "methods": {
      "amendDocumentSubmission(bytes32,address[])": {
        "notice": "Amends certification submission of previously submitted document - allows to amend required signatories (correcting mistake, etc.). Only allowed to be called by document submitter. If the document was already signed, the records will be retained; also if the document was already certified (signed by all signatories), the certification will be retained - these acts are irrevokable. Instead, the document will be allowed to be re-certified with amended signatories. Note that document can be certified as a result of calling this function. This can happen if no signatories are required or if the document was already signed by all required signatories (see signDocument). Can receive ether - if not zero, then paymaster will be funded to allow ether-less signing (see fundDocumentSigning) - only allowed when document is not immediately certified."
      },
      "approveRelayedSignDocumentCall(bytes32,uint256,address)": {
        "notice": "Checks if ether-less call of signDocument (using GSN) is approved. Revert means not appproved. Not for direct use - only can be called from paymaster (initiated by GSN relayer). Before GSN relayer calls signDocument, it will call this method (through paymaster) and will check all required conditions of funding the relayed call."
      },
      "chargeRelayedSignDocumentCall(bytes32,uint256)": {
        "notice": "Charges ether used for ether-less document signing. Not for direct use - only can be called from paymaster (initiated by GSN relayer). After GSN relayer calls signDocument, it will call this method (through paymaster) and will let this contract know the amount which was charged for the call. This is in order to trigger required accounting (ether used will be substracted from the previously funded amount usable for signing the specified document)."
      },
      "deleteDocumentSubmission(bytes32)": {
        "notice": "Deletes certification submission of previously submitted document (correcting mistake, etc.). Only allowed to be called by document submitter. Document must be pending to be certified (note that also previously certified document can be pending certification again due to submission amendment). If the document was already signed, the records will be retained; also if the document was already certified (signed by all signatories), the certification will be retained - these acts are irrevokable. Instead, the document will be not pending signing any more."
      },
      "ethNOSPaymaster()": {
        "notice": "Paymaster contract which manages paying for transactions using GSN."
      },
      "fundDocumentSigning(bytes32)": {
        "notice": "Funds paymaster (relay hub) with ether to allow ether-less signing (using fundDocumentSigning) by required signatories using GSN. Amount will be usable only for signing the specified document. Only allowed when EthNOSPaymaster is set (etherless signing is supported). Only allowed to be called by document submitter."
      },
      "getDocumentSigningBalance(bytes32)": {
        "notice": "Checks balance of ether previously funded for ether-less signing (using fundDocumentSigning). Only allowed when EthNOSPaymaster is set (etherless signing is supported)."
      },
      "isTrustedForwarder(address)": {
        "notice": "return if the forwarder is trusted to forward relayed transactions to us. the forwarder is required to verify the sender's signature, and verify the call is not a replay."
      },
      "setEthNOSPaymaster(address)": {
        "notice": "Sets paymaster contract which manages paying for transactions using GSN."
      },
      "setTrustedForwarder(address)": {
        "notice": "Sets trusted forwarder for transactions using GSN."
      },
      "signDocument(bytes32)": {
        "notice": "Signs document by sender's account. If the document was previously submitted for certification, its certification state will be updated - if the signatory is last of the required signatories, document will be certified. Act of document signing (and possible consequent act of certification) is irrevokable. Note that act of document signing can be done independently of submission for certification (or before it happens)."
      },
      "submitDocument(bytes32,address[])": {
        "notice": "Submits document for certification. Note that document can be certified as a result of calling this function. This can happen if no signatories are required or if the document was already signed by all required signatories (see signDocument). Can receive ether - if not zero, then paymaster will be funded to allow ether-less signing (see fundDocumentSigning) - only allowed when document is not immediately certified."
      },
      "verifyDocument(bytes32)": {
        "notice": "Returns certification state of given document along with comprehensive information about pending or completed certification(s)."
      },
      "withdrawDocumentSigningBalance(bytes32)": {
        "notice": "Withdraws ether previously funded for ether-less signing (using fundDocumentSigning) from paymaster (relay hub). This is usually called after document is certified to get unspent amount back to submitter, but it is not a requirement. Only allowed when EthNOSPaymaster is set (etherless signing is supported). Only allowed to be called by document submitter."
      }
    },
    "version": 1
  }
}