{
  "contractName": "EthNOS",
  "abi": [
    {
      "inputs": [
        {
          "internalType": "bytes32",
          "name": "documentHash",
          "type": "bytes32"
        },
        {
          "internalType": "address[]",
          "name": "requiredSignatories",
          "type": "address[]"
        }
      ],
      "name": "submitDocument",
      "outputs": [],
      "stateMutability": "nonpayable",
      "type": "function"
    },
    {
      "inputs": [
        {
          "internalType": "bytes32",
          "name": "documentHash",
          "type": "bytes32"
        }
      ],
      "name": "signDocument",
      "outputs": [],
      "stateMutability": "nonpayable",
      "type": "function"
    },
    {
      "inputs": [
        {
          "internalType": "bytes32",
          "name": "documentHash",
          "type": "bytes32"
        }
      ],
      "name": "verifyDocument",
      "outputs": [
        {
          "internalType": "bool",
          "name": "",
          "type": "bool"
        }
      ],
      "stateMutability": "view",
      "type": "function"
    }
  ],
  "bytecode": "0x608060405234801561001057600080fd5b5061025f806100206000396000f3fe608060405234801561001057600080fd5b50600436106100415760003560e01c8063166cba38146100465780637302997b14610062578063fe35089f1461007e575b600080fd5b610060600480360381019061005b9190610101565b6100ae565b005b61007c60048036038101906100779190610193565b6100b1565b005b61009860048036038101906100939190610101565b6100b6565b6040516100a5919061020e565b60405180910390f35b50565b505050565b600060019050919050565b600080fd5b600080fd5b6000819050919050565b6100de816100cb565b81146100e957600080fd5b50565b6000813590506100fb816100d5565b92915050565b600060208284031215610117576101166100c1565b5b6000610125848285016100ec565b91505092915050565b600080fd5b600080fd5b600080fd5b60008083601f8401126101535761015261012e565b5b8235905067ffffffffffffffff8111156101705761016f610133565b5b60208301915083602082028301111561018c5761018b610138565b5b9250929050565b6000806000604084860312156101ac576101ab6100c1565b5b60006101ba868287016100ec565b935050602084013567ffffffffffffffff8111156101db576101da6100c6565b5b6101e78682870161013d565b92509250509250925092565b60008115159050919050565b610208816101f3565b82525050565b600060208201905061022360008301846101ff565b9291505056fea2646970667358221220533373b4f23476e5c935a6b59e654b7a34eaabd78b413b21092dab08df8e0ca964736f6c63430008090033",
  "immutableReferences": {},
  "source": "// SPDX-License-Identifier: MIT\npragma solidity 0.8.9;\n\ncontract EthNOS \n{\n  // TODO:\n  // - To avoid requiring signatories to spend ETH, they will be able to perform the signing as \"etherless\" transaction. In the above example (see Example workflow) it is not reasonable to expect that signatory (the person taking the mortgage) would be willing to pay just for signing the mortgage agreement, rather than that submitter (the mortgage broker) will bear the cost of this. This will be done using meta-transactions (OpenGSN or similar).\n  // - Ability to amend existing submission of a document (such as adding / removing required signatories) by the submitter will be considered.\n  // - Possibility of submission with signing in one transaction (for cases when submitter is also a signatory) will be considered.\n  // - Ability to run arbitrary transaction (smart contract call, etc.) on document verification.\n  // - decouple submission / signing?\n  // - current time oracle?\n\n  // TODO: variables  \n  // TODO: enums\n  // TODO: structs\n  // TODO: events\n  // TODO: modifiers\n  // TODO: constructors\n\n  // Submits document for signing.\n  function submitDocument(\n    // Keccak256 hash of the document (computed off-chain).\n    bytes32 documentHash,    \n    // Addresses of required signatories (can be empty if only proof of existence is required).\n    address[] calldata requiredSignatories)\n    external\n    // TODO: ok not returning?\n    {\n      // TODO: implement\n      // TODO: emit events\n      // TODO: unit tests\n    }  \n\n  // Signs document by the caller account.\n  function signDocument(\n    // Keccak256 hash of the document (computed off-chain).\n    bytes32 documentHash)\n    external\n    // TODO: ok not returning?\n  {\n      // TODO: implement\n      // TODO: emit events\n      // TODO: unit tests\n  }\n\n  // Checks if document has been verified (signed by all required signatories).\n  function verifyDocument(\n    // Keccak256 hash of the document (computed off-chain).\n    bytes32 documentHash)\n    external view\n    returns(bool) \n    // TODO: change? more information? or separate methods?  \n    // - state (unknown, pending, valid)\n    // - submitter, submit time\n    // - signatories - signatory, sign time\n    // - validation time\n  {\n      // TODO: implement\n      return true;    \n      // TODO: emit events?\n      // TODO: unit tests      \n  }\n}",
  "sourcePath": "/home/martin/repos/blockchain-developer-bootcamp-final-project/contracts/EthNOS.sol",
  "compiler": {
    "name": "solc",
    "version": "0.8.9+commit.e5eed63a.Emscripten.clang"
  },
  "schemaVersion": "3.4.3",
  "updatedAt": "2021-11-05T18:23:47.704Z",
  "devdoc": {
    "kind": "dev",
    "methods": {},
    "version": 1
  },
  "userdoc": {
    "kind": "user",
    "methods": {},
    "version": 1
  }
}