{
  "contractName": "EthNOS",
  "abi": [
    {
      "inputs": [
        {
          "internalType": "bytes32",
          "name": "documentHash",
          "type": "bytes32"
        },
        {
          "internalType": "address[]",
          "name": "requiredSignatories",
          "type": "address[]"
        }
      ],
      "name": "submitDocument",
      "outputs": [],
      "stateMutability": "nonpayable",
      "type": "function"
    },
    {
      "inputs": [
        {
          "internalType": "bytes32",
          "name": "documentHash",
          "type": "bytes32"
        },
        {
          "internalType": "address[]",
          "name": "requiredSignatories",
          "type": "address[]"
        }
      ],
      "name": "amendDocumentSubmission",
      "outputs": [],
      "stateMutability": "nonpayable",
      "type": "function"
    },
    {
      "inputs": [
        {
          "internalType": "bytes32",
          "name": "documentHash",
          "type": "bytes32"
        }
      ],
      "name": "deleteDocumentSubmission",
      "outputs": [],
      "stateMutability": "nonpayable",
      "type": "function"
    },
    {
      "inputs": [
        {
          "internalType": "bytes32",
          "name": "documentHash",
          "type": "bytes32"
        }
      ],
      "name": "signDocument",
      "outputs": [],
      "stateMutability": "nonpayable",
      "type": "function"
    },
    {
      "inputs": [
        {
          "internalType": "bytes32",
          "name": "documentHash",
          "type": "bytes32"
        }
      ],
      "name": "verifyDocument",
      "outputs": [
        {
          "internalType": "enum EthNOS.CertificationState",
          "name": "certificationState",
          "type": "uint8"
        },
        {
          "internalType": "address",
          "name": "submitter",
          "type": "address"
        },
        {
          "components": [
            {
              "components": [
                {
                  "internalType": "address",
                  "name": "signatory",
                  "type": "address"
                },
                {
                  "internalType": "uint256",
                  "name": "signTime",
                  "type": "uint256"
                }
              ],
              "internalType": "struct EthNOS.SigningInfo[]",
              "name": "signatures",
              "type": "tuple[]"
            },
            {
              "internalType": "uint256",
              "name": "submissionTime",
              "type": "uint256"
            },
            {
              "internalType": "uint256",
              "name": "certificationTime",
              "type": "uint256"
            }
          ],
          "internalType": "struct EthNOS.CertificationInfo",
          "name": "currentCertification",
          "type": "tuple"
        },
        {
          "components": [
            {
              "components": [
                {
                  "internalType": "address",
                  "name": "signatory",
                  "type": "address"
                },
                {
                  "internalType": "uint256",
                  "name": "signTime",
                  "type": "uint256"
                }
              ],
              "internalType": "struct EthNOS.SigningInfo[]",
              "name": "signatures",
              "type": "tuple[]"
            },
            {
              "internalType": "uint256",
              "name": "submissionTime",
              "type": "uint256"
            },
            {
              "internalType": "uint256",
              "name": "certificationTime",
              "type": "uint256"
            }
          ],
          "internalType": "struct EthNOS.CertificationInfo[]",
          "name": "pastCertifications",
          "type": "tuple[]"
        },
        {
          "components": [
            {
              "internalType": "address",
              "name": "signatory",
              "type": "address"
            },
            {
              "internalType": "uint256",
              "name": "signTime",
              "type": "uint256"
            }
          ],
          "internalType": "struct EthNOS.SigningInfo[]",
          "name": "orphanedSignatures",
          "type": "tuple[]"
        }
      ],
      "stateMutability": "view",
      "type": "function"
    }
  ],
  "bytecode": "0x608060405234801561001057600080fd5b506106a7806100206000396000f3fe608060405234801561001057600080fd5b50600436106100575760003560e01c8063166cba381461005c5780632ba035c0146100785780637302997b146100945780638e61e75d146100b0578063fe35089f146100cc575b600080fd5b61007660048036038101906100719190610188565b610100565b005b610092600480360381019061008d919061021a565b610103565b005b6100ae60048036038101906100a9919061021a565b610108565b005b6100ca60048036038101906100c59190610188565b61010d565b005b6100e660048036038101906100e19190610188565b610110565b6040516100f7959493929190610609565b60405180910390f35b50565b505050565b505050565b50565b60008061011b610127565b60608091939590929450565b60405180606001604052806060815260200160008152602001600081525090565b600080fd5b600080fd5b6000819050919050565b61016581610152565b811461017057600080fd5b50565b6000813590506101828161015c565b92915050565b60006020828403121561019e5761019d610148565b5b60006101ac84828501610173565b91505092915050565b600080fd5b600080fd5b600080fd5b60008083601f8401126101da576101d96101b5565b5b8235905067ffffffffffffffff8111156101f7576101f66101ba565b5b602083019150836020820283011115610213576102126101bf565b5b9250929050565b60008060006040848603121561023357610232610148565b5b600061024186828701610173565b935050602084013567ffffffffffffffff8111156102625761026161014d565b5b61026e868287016101c4565b92509250509250925092565b7f4e487b7100000000000000000000000000000000000000000000000000000000600052602160045260246000fd5b600381106102ba576102b961027a565b5b50565b60008190506102cb826102a9565b919050565b60006102db826102bd565b9050919050565b6102eb816102d0565b82525050565b600073ffffffffffffffffffffffffffffffffffffffff82169050919050565b600061031c826102f1565b9050919050565b61032c81610311565b82525050565b600081519050919050565b600082825260208201905092915050565b6000819050602082019050919050565b61036781610311565b82525050565b6000819050919050565b6103808161036d565b82525050565b60408201600082015161039c600085018261035e565b5060208201516103af6020850182610377565b50505050565b60006103c18383610386565b60408301905092915050565b6000602082019050919050565b60006103e582610332565b6103ef818561033d565b93506103fa8361034e565b8060005b8381101561042b57815161041288826103b5565b975061041d836103cd565b9250506001810190506103fe565b5085935050505092915050565b6000606083016000830151848203600086015261045582826103da565b915050602083015161046a6020860182610377565b50604083015161047d6040860182610377565b508091505092915050565b600081519050919050565b600082825260208201905092915050565b6000819050602082019050919050565b600060608301600083015184820360008601526104d182826103da565b91505060208301516104e66020860182610377565b5060408301516104f96040860182610377565b508091505092915050565b600061051083836104b4565b905092915050565b6000602082019050919050565b600061053082610488565b61053a8185610493565b93508360208202850161054c856104a4565b8060005b8581101561058857848403895281516105698582610504565b945061057483610518565b925060208a01995050600181019050610550565b50829750879550505050505092915050565b600082825260208201905092915050565b60006105b682610332565b6105c0818561059a565b93506105cb8361034e565b8060005b838110156105fc5781516105e388826103b5565b97506105ee836103cd565b9250506001810190506105cf565b5085935050505092915050565b600060a08201905061061e60008301886102e2565b61062b6020830187610323565b818103604083015261063d8186610438565b905081810360608301526106518185610525565b9050818103608083015261066581846105ab565b9050969550505050505056fea26469706673582212202ac03b3847bcadc3372925feb68ef24055310e370f4b8b34e1de3a559da4a98164736f6c63430008090033",
  "immutableReferences": {},
  "source": "// SPDX-License-Identifier: MIT\npragma solidity 0.8.9;\n\ncontract EthNOS \n{\n  // TODO: NatSpec \n\n  // TODO:\n  // - To avoid requiring signatories to spend ETH, they will be able to perform the signing as \"etherless\" transaction. In the above example (see Example workflow) it is not reasonable to expect that signatory (the person taking the mortgage) would be willing to pay just for signing the mortgage agreement, rather than that submitter (the mortgage broker) will bear the cost of this. This will be done using meta-transactions (OpenGSN or similar).\n  // - Ability to run arbitrary transaction (smart contract call, etc.) on document verification.\n  // - Current time oracle?\n  \n  // TODO: variables    \n  \n  // Certification state of document.  \n  enum CertificationState \n  {    \n    // Document was not submitted for certification. \n    NotSubmitted,    \n    // Document is pending certification. Some required signatories did not sign the document yet.\n    CertificationPending,\n    // Document is certified. All required signatories (if applicable) did sign the document.\n    Certified\n  }\n  \n  // Represents required or completed act of signing the document.\n  struct SigningInfo\n  {        \n    // Address of signatory.\n    address signatory;        \n    // Time of signing (seconds since unix epoch). Zero if not signed.\n    uint signTime;\n  }  \n\n  // Represents pending or completed act of certification of the document.\n  struct CertificationInfo\n  {    \n    // Required signatures - signatories with times of signing the document (if signed).\n    SigningInfo[] signatures;    \n    // Time of document submission / amendment (seconds since unix epoch).\n    uint submissionTime;    \n    // Time of document certification (time when document is signed by all required\n    // signatories) (seconds since unix epoch). Zero if certification is pending.\n    uint certificationTime;\n  }\n\n  // TODO: events\n  // TODO: modifiers\n  // TODO: constructor?\n\n  // Submits document for certification.\n  //\n  // Note that document can be certified as a result of calling this function. This can happen\n  // if no signatories are required or if the document was already signed by all required\n  // signatories (see signDocument).\n  function submitDocument(\n    // Keccak256 hash of the document (computed off-chain). \n    // (Previously submitted documents are not allowed.)\n    bytes32 documentHash,\n    // Addresses of required signatories (can be empty if only proof of existence is required).\n    address[] calldata requiredSignatories)\n    external\n  {\n    // TODO: implement\n    // TODO: emit events\n    // TODO: unit tests\n  }  \n      \n  // Amends submission of previously submitted document -\n  // allows to amend required signatories (correcting mistake, etc.).\n  // (Only allowed to be called by document submitter.)\n  //\n  // If the document was already signed, the records will be retained;\n  // also if the document was already certified (signed by all signatories),\n  // the certification will be retained - these acts are irrevokable.\n  // Instead, the document will be allowed to be re-certified with amended signatories.\n  //\n  // Note that document can be certified as a result of calling this function. This can happen\n  // if no signatories are required or if the document was already signed by all required\n  // signatories (see signDocument).\n  function amendDocumentSubmission(\n    // Keccak256 hash of the document (computed off-chain). \n    // (Only previously submitted documents are allowed.)\n    bytes32 documentHash,\n    // Addresses of required signatories (can be empty if only proof of existence is required).\n    address[] calldata requiredSignatories)\n    external\n  {\n    // TODO: implement\n    // TODO: emit events\n    // TODO: unit tests\n  }\n  \n  // Deletes submission of previously submitted document (correcting mistake, etc.).\n  // (Only allowed to be called by document submitter.)\n  //  \n  // Document must be pending to be certified (note that also previously certified\n  // document can be pending for certification again due to submission amendment).  \n  //\n  // If the document was already signed, the records will be retained;\n  // also if the document was already certified (signed by all signatories),  \n  // the certification will be retained - these acts are irrevokable.\n  // Instead, the document will be not pending for signing any more.  \n  function deleteDocumentSubmission(\n    // Keccak256 hash of the document (computed off-chain).\n    // (Only previously submitted documents are allowed.)\n    bytes32 documentHash)\n    external\n  {\n    // TODO: implement\n    // TODO: emit events\n    // TODO: unit tests\n  }\n    \n  // Signs document by the caller account.\n  //    \n  // If the document was previously submitted for certification, its certification \n  // state will be re-evaluated - if the signatory is last of the required signatories,\n  // document will be certified.\n  //    \n  // Act of document signing (and possible consequent act of certification) is irrevokable. \n  //  \n  // Note that act of document signing can be done independently of submission \n  // for certification (or before it happens).\n  function signDocument(\n    // Keccak256 hash of the document (computed off-chain).\n    bytes32 documentHash)\n    external\n  {\n      // TODO: implement\n      // TODO: emit events\n      // TODO: unit tests\n  }\n  \n  // Returns certification state of given document along with \n  // comprehensive information about pending or completed certification(s).\n  function verifyDocument(    \n    // Keccak256 hash of the document (computed off-chain).\n    bytes32 documentHash)\n    external view\n    // TODO: memory of return variables is ok?\n    returns (      \n      // Certification state.      \n      CertificationState certificationState,      \n      // Submitter of the certification. Zero if certificationState = NotSubmitted.\n      address submitter,      \n      // Current pending or completed certification information.      \n      CertificationInfo memory currentCertification,      \n      // Historical completed certifications (if submission was amended).\n      CertificationInfo[] memory pastCertifications,      \n      // Signatures not required by certification.\n      SigningInfo[] memory orphanedSignatures)       \n  {      \n      // TODO: implement\n      // TODO: emit events?\n      // TODO: unit tests      \n  }\n}",
  "sourcePath": "/home/martin/repos/blockchain-developer-bootcamp-final-project/contracts/EthNOS.sol",
  "compiler": {
    "name": "solc",
    "version": "0.8.9+commit.e5eed63a.Emscripten.clang"
  },
  "schemaVersion": "3.4.3",
  "updatedAt": "2021-11-06T15:59:31.142Z",
  "devdoc": {
    "kind": "dev",
    "methods": {},
    "version": 1
  },
  "userdoc": {
    "kind": "user",
    "methods": {},
    "version": 1
  }
}